{
  "_format": "hh-sol-artifact-1",
  "contractName": "BondManager",
  "sourceName": "contracts/BondManager.sol",
  "abi": [
    {
      "inputs": [
        {
          "internalType": "address",
          "name": "_newOwner",
          "type": "address"
        }
      ],
      "stateMutability": "nonpayable",
      "type": "constructor"
    },
    {
      "anonymous": false,
      "inputs": [
        {
          "indexed": true,
          "internalType": "address",
          "name": "previousOwner",
          "type": "address"
        },
        {
          "indexed": true,
          "internalType": "address",
          "name": "newOwner",
          "type": "address"
        }
      ],
      "name": "OwnershipTransferred",
      "type": "event"
    },
    {
      "inputs": [],
      "name": "aaveBonds",
      "outputs": [
        {
          "internalType": "uint256",
          "name": "",
          "type": "uint256"
        }
      ],
      "stateMutability": "view",
      "type": "function"
    },
    {
      "inputs": [
        {
          "internalType": "uint256",
          "name": "_chainId",
          "type": "uint256"
        }
      ],
      "name": "addNetwork",
      "outputs": [],
      "stateMutability": "nonpayable",
      "type": "function"
    },
    {
      "inputs": [],
      "name": "bondWithdrawal",
      "outputs": [
        {
          "internalType": "uint64",
          "name": "executeAfter",
          "type": "uint64"
        },
        {
          "internalType": "uint256",
          "name": "withdrawalAmount",
          "type": "uint256"
        }
      ],
      "stateMutability": "view",
      "type": "function"
    },
    {
      "inputs": [],
      "name": "bonds",
      "outputs": [
        {
          "internalType": "uint256",
          "name": "",
          "type": "uint256"
        }
      ],
      "stateMutability": "view",
      "type": "function"
    },
    {
      "inputs": [
        {
          "internalType": "uint256",
          "name": "_chainId",
          "type": "uint256"
        }
      ],
      "name": "deleteNetwork",
      "outputs": [],
      "stateMutability": "nonpayable",
      "type": "function"
    },
    {
      "inputs": [
        {
          "internalType": "uint256",
          "name": "_amount",
          "type": "uint256"
        },
        {
          "internalType": "bool",
          "name": "_isPoolDeposit",
          "type": "bool"
        }
      ],
      "name": "deposit",
      "outputs": [],
      "stateMutability": "payable",
      "type": "function"
    },
    {
      "inputs": [
        {
          "internalType": "uint256",
          "name": "_amount",
          "type": "uint256"
        }
      ],
      "name": "executeWithdrawBond",
      "outputs": [],
      "stateMutability": "nonpayable",
      "type": "function"
    },
    {
      "inputs": [],
      "name": "finalizeWithdrawalBond",
      "outputs": [],
      "stateMutability": "payable",
      "type": "function"
    },
    {
      "inputs": [],
      "name": "getAllAvailableNetworks",
      "outputs": [
        {
          "internalType": "uint256[]",
          "name": "",
          "type": "uint256[]"
        }
      ],
      "stateMutability": "view",
      "type": "function"
    },
    {
      "inputs": [],
      "name": "getBond",
      "outputs": [
        {
          "internalType": "uint256",
          "name": "",
          "type": "uint256"
        }
      ],
      "stateMutability": "view",
      "type": "function"
    },
    {
      "inputs": [],
      "name": "getExpireDate",
      "outputs": [
        {
          "internalType": "uint256",
          "name": "",
          "type": "uint256"
        }
      ],
      "stateMutability": "view",
      "type": "function"
    },
    {
      "inputs": [],
      "name": "getRootStatusManagerAddress",
      "outputs": [
        {
          "internalType": "address",
          "name": "",
          "type": "address"
        }
      ],
      "stateMutability": "view",
      "type": "function"
    },
    {
      "inputs": [
        {
          "internalType": "uint256",
          "name": "_chainId",
          "type": "uint256"
        }
      ],
      "name": "isAvailableNetwork",
      "outputs": [
        {
          "internalType": "bool",
          "name": "",
          "type": "bool"
        }
      ],
      "stateMutability": "view",
      "type": "function"
    },
    {
      "inputs": [],
      "name": "owner",
      "outputs": [
        {
          "internalType": "address",
          "name": "",
          "type": "address"
        }
      ],
      "stateMutability": "view",
      "type": "function"
    },
    {
      "inputs": [],
      "name": "renounceOwnership",
      "outputs": [],
      "stateMutability": "nonpayable",
      "type": "function"
    },
    {
      "inputs": [],
      "name": "rootStatusManager",
      "outputs": [
        {
          "internalType": "address",
          "name": "",
          "type": "address"
        }
      ],
      "stateMutability": "view",
      "type": "function"
    },
    {
      "inputs": [
        {
          "internalType": "address",
          "name": "_rootStatusManager",
          "type": "address"
        }
      ],
      "name": "setRootStatusManager",
      "outputs": [],
      "stateMutability": "nonpayable",
      "type": "function"
    },
    {
      "inputs": [
        {
          "internalType": "uint256",
          "name": "_amount",
          "type": "uint256"
        },
        {
          "internalType": "address",
          "name": "_disputerAddress",
          "type": "address"
        }
      ],
      "name": "slash",
      "outputs": [],
      "stateMutability": "payable",
      "type": "function"
    },
    {
      "inputs": [
        {
          "internalType": "address",
          "name": "newOwner",
          "type": "address"
        }
      ],
      "name": "transferOwnership",
      "outputs": [],
      "stateMutability": "nonpayable",
      "type": "function"
    }
  ],
  "bytecode": "0x6080604052600380546001600160a01b031990811673ccb14936c2e000ed8393a571d15a2672537838ad1790915560048054909116737b5c526b7f8dfdff278b4a3e045083fba402879017905534801561005857600080fd5b50604051610f36380380610f36833981016040819052610077916101b9565b6100803361008f565b610089816100df565b506101e9565b600080546001600160a01b038381166001600160a01b0319831681178455604051919092169283917f8be0079c531659141344cd1fd0a4f28419497f9722a3daafe3b4186f6b6457e09190a35050565b6100e761015d565b6001600160a01b0381166101515760405162461bcd60e51b815260206004820152602660248201527f4f776e61626c653a206e6577206f776e657220697320746865207a65726f206160448201526564647265737360d01b60648201526084015b60405180910390fd5b61015a8161008f565b50565b6000546001600160a01b031633146101b75760405162461bcd60e51b815260206004820181905260248201527f4f776e61626c653a2063616c6c6572206973206e6f7420746865206f776e65726044820152606401610148565b565b6000602082840312156101cb57600080fd5b81516001600160a01b03811681146101e257600080fd5b9392505050565b610d3e806101f86000396000f3fe6080604052600436106101145760003560e01c80638da5cb5b116100a0578063d92454c811610064578063d92454c814610301578063e05e69b814610321578063e5d36ede14610336578063f2fde38b14610356578063f99988421461037657600080fd5b80638da5cb5b146102855780638e2a8c4e146102a35780639a408321146102b95780639ea85007146102cc578063ac982472146102ec57600080fd5b806332d9aa6e116100e757806332d9aa6e146101d65780633d82e3c1146101f8578063715018a61461020b5780637826828014610220578063854f14361461024057600080fd5b8063135c404e14610119578063177048cd146101425780631a14536c146101825780632cf4a949146101a4575b600080fd5b34801561012557600080fd5b5061012f60015481565b6040519081526020015b60405180910390f35b34801561014e57600080fd5b5061017261015d366004610b35565b60009081526006602052604090205460ff1690565b6040519015158152602001610139565b34801561018e57600080fd5b5061019761037e565b6040516101399190610b4e565b3480156101b057600080fd5b506005546001600160a01b03165b6040516001600160a01b039091168152602001610139565b3480156101e257600080fd5b506101f66101f1366004610b35565b61042d565b005b6101f6610206366004610bae565b61049a565b34801561021757600080fd5b506101f66105ea565b34801561022c57600080fd5b506005546101be906001600160a01b031681565b34801561024c57600080fd5b506008546009546102659167ffffffffffffffff169082565b6040805167ffffffffffffffff9093168352602083019190915201610139565b34801561029157600080fd5b506000546001600160a01b03166101be565b3480156102af57600080fd5b5061012f60025481565b6101f66102c7366004610be8565b6105fe565b3480156102d857600080fd5b506101f66102e7366004610b35565b610803565b3480156102f857600080fd5b5060015461012f565b34801561030d57600080fd5b506101f661031c366004610c18565b610823565b34801561032d57600080fd5b5061012f61084d565b34801561034257600080fd5b506101f6610351366004610b35565b610879565b34801561036257600080fd5b506101f6610371366004610c18565b6108ce565b6101f6610947565b6060806000805b6007548110156104255760066000600783815481106103a6576103a6610c3a565b6000918252602080832090910154835282019290925260400190205460ff161561041357600781815481106103dd576103dd610c3a565b90600052602060002001548383815181106103fa576103fa610c3a565b6020908102919091010152610410600183610c66565b91505b8061041d81610c7e565b915050610385565b509092915050565b610435610a8b565b80600160008282546104479190610c99565b90915550506040805180820190915280610463612a3042610c66565b67ffffffffffffffff908116825260209182019390935281516008805467ffffffffffffffff191691909416179092550151600955565b81600160008282546104ac9190610c99565b909155505060408051600080825260208201909252339084906040516104d29190610cb0565b60006040518083038185875af1925050503d806000811461050f576040519150601f19603f3d011682016040523d82523d6000602084013e610514565b606091505b505090508061055c5760405162461bcd60e51b815260206004820152600f60248201526e14d95b99081155120819985a5b1959608a1b60448201526064015b60405180910390fd5b600560009054906101000a90046001600160a01b03166001600160a01b0316637ee0ef4c6040518163ffffffff1660e01b8152600401602060405180830381600087803b1580156105ac57600080fd5b505af11580156105c0573d6000803e3d6000fd5b505050506040513d601f19601f820116820180604052508101906105e49190610ceb565b50505050565b6105f2610a8b565b6105fc6000610ae5565b565b610606610a8b565b813410156106565760405162461bcd60e51b815260206004820152601860248201527f496e73756666696369656e74204554482062616c616e636500000000000000006044820152606401610553565b80156107e757600360009054906101000a90046001600160a01b03166001600160a01b031663d0e30db0346040518263ffffffff1660e01b81526004016000604051808303818588803b1580156106ac57600080fd5b505af11580156106c0573d6000803e3d6000fd5b50506003546004805460405163095ea7b360e01b81526001600160a01b039182169281019290925260248201889052909116935063095ea7b392506044019050602060405180830381600087803b15801561071a57600080fd5b505af115801561072e573d6000803e3d6000fd5b505050506040513d601f19601f820116820180604052508101906107529190610ceb565b506004805460035460405163617ba03760e01b81526001600160a01b03918216938101939093526024830185905230604484015260006064840152169063617ba03790608401600060405180830381600087803b1580156107b257600080fd5b505af11580156107c6573d6000803e3d6000fd5b5050505081600260008282546107dc9190610c66565b909155506107ff9050565b81600160008282546107f99190610c66565b90915550505b5050565b61080b610a8b565b6000908152600660205260409020805460ff19169055565b61082b610a8b565b600580546001600160a01b0319166001600160a01b0392909216919091179055565b60085460009067ffffffffffffffff166108685750612a3090565b5060085467ffffffffffffffff1690565b610881610a8b565b6007805460018181019092557fa66cc928b5edb82af9bd49922954155ab7b0942694bea4ce44661d9a8736c68801829055600091825260066020526040909120805460ff19169091179055565b6108d6610a8b565b6001600160a01b03811661093b5760405162461bcd60e51b815260206004820152602660248201527f4f776e61626c653a206e6577206f776e657220697320746865207a65726f206160448201526564647265737360d01b6064820152608401610553565b61094481610ae5565b50565b60085467ffffffffffffffff90811642909116116109a75760405162461bcd60e51b815260206004820152601560248201527f4f6e676f696e672075706461746520706572696f6400000000000000000000006044820152606401610553565b600954600080546040805183815260208101918290526001600160a01b039092169184916109d59190610cb0565b60006040518083038185875af1925050503d8060008114610a12576040519150601f19603f3d011682016040523d82523d6000602084013e610a17565b606091505b5050905080610a5c5760405162461bcd60e51b815260206004820152601160248201527014d95b99081d1bdad95b8819985a5b1959607a1b6044820152606401610553565b505060408051808201909152600080825260209091018190526008805467ffffffffffffffff19169055600955565b6000546001600160a01b031633146105fc5760405162461bcd60e51b815260206004820181905260248201527f4f776e61626c653a2063616c6c6572206973206e6f7420746865206f776e65726044820152606401610553565b600080546001600160a01b038381166001600160a01b0319831681178455604051919092169283917f8be0079c531659141344cd1fd0a4f28419497f9722a3daafe3b4186f6b6457e09190a35050565b600060208284031215610b4757600080fd5b5035919050565b6020808252825182820181905260009190848201906040850190845b81811015610b8657835183529284019291840191600101610b6a565b50909695505050505050565b80356001600160a01b0381168114610ba957600080fd5b919050565b60008060408385031215610bc157600080fd5b82359150610bd160208401610b92565b90509250929050565b801515811461094457600080fd5b60008060408385031215610bfb57600080fd5b823591506020830135610c0d81610bda565b809150509250929050565b600060208284031215610c2a57600080fd5b610c3382610b92565b9392505050565b634e487b7160e01b600052603260045260246000fd5b634e487b7160e01b600052601160045260246000fd5b60008219821115610c7957610c79610c50565b500190565b6000600019821415610c9257610c92610c50565b5060010190565b600082821015610cab57610cab610c50565b500390565b6000825160005b81811015610cd15760208186018101518583015201610cb7565b81811115610ce0576000828501525b509190910192915050565b600060208284031215610cfd57600080fd5b8151610c3381610bda56fea26469706673582212200ef8a76467bdafeff05ef0d8163b2770ae1c4727a1f0a9882ce1c3a77b7a40ba64736f6c63430008090033",
  "linkReferences": {},
  "deployedLinkReferences": {}
}