{
  "_format": "hh-sol-artifact-1",
  "contractName": "BondManager",
  "sourceName": "contracts/BondManager.sol",
  "abi": [
    {
      "inputs": [
        {
          "internalType": "address",
          "name": "_newOwner",
          "type": "address"
        }
      ],
      "stateMutability": "nonpayable",
      "type": "constructor"
    },
    {
      "anonymous": false,
      "inputs": [
        {
          "indexed": true,
          "internalType": "address",
          "name": "previousOwner",
          "type": "address"
        },
        {
          "indexed": true,
          "internalType": "address",
          "name": "newOwner",
          "type": "address"
        }
      ],
      "name": "OwnershipTransferred",
      "type": "event"
    },
    {
      "inputs": [
        {
          "internalType": "uint256",
          "name": "_chainId",
          "type": "uint256"
        }
      ],
      "name": "addNetwork",
      "outputs": [],
      "stateMutability": "nonpayable",
      "type": "function"
    },
    {
      "inputs": [],
      "name": "bondWithdrawal",
      "outputs": [
        {
          "internalType": "uint64",
          "name": "executeAfter",
          "type": "uint64"
        },
        {
          "internalType": "uint256",
          "name": "withdrawalAmount",
          "type": "uint256"
        }
      ],
      "stateMutability": "view",
      "type": "function"
    },
    {
      "inputs": [],
      "name": "bonds",
      "outputs": [
        {
          "internalType": "uint256",
          "name": "",
          "type": "uint256"
        }
      ],
      "stateMutability": "view",
      "type": "function"
    },
    {
      "inputs": [
        {
          "internalType": "uint256",
          "name": "_chainId",
          "type": "uint256"
        }
      ],
      "name": "deleteNetwork",
      "outputs": [],
      "stateMutability": "nonpayable",
      "type": "function"
    },
    {
      "inputs": [
        {
          "internalType": "uint256",
          "name": "_amount",
          "type": "uint256"
        }
      ],
      "name": "deposit",
      "outputs": [],
      "stateMutability": "payable",
      "type": "function"
    },
    {
      "inputs": [
        {
          "internalType": "uint256",
          "name": "_amount",
          "type": "uint256"
        }
      ],
      "name": "executeWithdrawBond",
      "outputs": [],
      "stateMutability": "nonpayable",
      "type": "function"
    },
    {
      "inputs": [],
      "name": "finalizeWithdrawalBond",
      "outputs": [],
      "stateMutability": "payable",
      "type": "function"
    },
    {
      "inputs": [],
      "name": "getAllAvailableNetworks",
      "outputs": [
        {
          "internalType": "uint256[]",
          "name": "",
          "type": "uint256[]"
        }
      ],
      "stateMutability": "view",
      "type": "function"
    },
    {
      "inputs": [],
      "name": "getBond",
      "outputs": [
        {
          "internalType": "uint256",
          "name": "",
          "type": "uint256"
        }
      ],
      "stateMutability": "view",
      "type": "function"
    },
    {
      "inputs": [],
      "name": "getExpireDate",
      "outputs": [
        {
          "internalType": "uint256",
          "name": "",
          "type": "uint256"
        }
      ],
      "stateMutability": "view",
      "type": "function"
    },
    {
      "inputs": [],
      "name": "getRootStatusManagerAddress",
      "outputs": [
        {
          "internalType": "address",
          "name": "",
          "type": "address"
        }
      ],
      "stateMutability": "view",
      "type": "function"
    },
    {
      "inputs": [
        {
          "internalType": "uint256",
          "name": "_chainId",
          "type": "uint256"
        }
      ],
      "name": "isAvailableNetwork",
      "outputs": [
        {
          "internalType": "bool",
          "name": "",
          "type": "bool"
        }
      ],
      "stateMutability": "view",
      "type": "function"
    },
    {
      "inputs": [],
      "name": "owner",
      "outputs": [
        {
          "internalType": "address",
          "name": "",
          "type": "address"
        }
      ],
      "stateMutability": "view",
      "type": "function"
    },
    {
      "inputs": [],
      "name": "renounceOwnership",
      "outputs": [],
      "stateMutability": "nonpayable",
      "type": "function"
    },
    {
      "inputs": [],
      "name": "rootStatusManager",
      "outputs": [
        {
          "internalType": "address",
          "name": "",
          "type": "address"
        }
      ],
      "stateMutability": "view",
      "type": "function"
    },
    {
      "inputs": [
        {
          "internalType": "address",
          "name": "_rootStatusManager",
          "type": "address"
        }
      ],
      "name": "setRootStatusManager",
      "outputs": [],
      "stateMutability": "nonpayable",
      "type": "function"
    },
    {
      "inputs": [
        {
          "internalType": "uint256",
          "name": "_amount",
          "type": "uint256"
        },
        {
          "internalType": "address",
          "name": "_disputerAddress",
          "type": "address"
        }
      ],
      "name": "slash",
      "outputs": [],
      "stateMutability": "payable",
      "type": "function"
    },
    {
      "inputs": [
        {
          "internalType": "address",
          "name": "newOwner",
          "type": "address"
        }
      ],
      "name": "transferOwnership",
      "outputs": [],
      "stateMutability": "nonpayable",
      "type": "function"
    }
  ],
  "bytecode": "0x608060405234801561001057600080fd5b50604051610ced380380610ced83398101604081905261002f91610171565b61003833610047565b61004181610097565b506101a1565b600080546001600160a01b038381166001600160a01b0319831681178455604051919092169283917f8be0079c531659141344cd1fd0a4f28419497f9722a3daafe3b4186f6b6457e09190a35050565b61009f610115565b6001600160a01b0381166101095760405162461bcd60e51b815260206004820152602660248201527f4f776e61626c653a206e6577206f776e657220697320746865207a65726f206160448201526564647265737360d01b60648201526084015b60405180910390fd5b61011281610047565b50565b6000546001600160a01b0316331461016f5760405162461bcd60e51b815260206004820181905260248201527f4f776e61626c653a2063616c6c6572206973206e6f7420746865206f776e65726044820152606401610100565b565b60006020828403121561018357600080fd5b81516001600160a01b038116811461019a57600080fd5b9392505050565b610b3d806101b06000396000f3fe6080604052600436106101095760003560e01c80638da5cb5b11610095578063d92454c811610064578063d92454c8146102e0578063e05e69b814610300578063e5d36ede14610315578063f2fde38b14610335578063f99988421461035557600080fd5b80638da5cb5b1461027a5780639ea8500714610298578063ac982472146102b8578063b6b55f25146102cd57600080fd5b806332d9aa6e116100dc57806332d9aa6e146101cb5780633d82e3c1146101ed578063715018a6146102005780637826828014610215578063854f14361461023557600080fd5b8063135c404e1461010e578063177048cd146101375780631a14536c146101775780632cf4a94914610199575b600080fd5b34801561011a57600080fd5b5061012460015481565b6040519081526020015b60405180910390f35b34801561014357600080fd5b5061016761015236600461096d565b60009081526003602052604090205460ff1690565b604051901515815260200161012e565b34801561018357600080fd5b5061018c61035d565b60405161012e9190610986565b3480156101a557600080fd5b506002546001600160a01b03165b6040516001600160a01b03909116815260200161012e565b3480156101d757600080fd5b506101eb6101e636600461096d565b6103f8565b005b6101eb6101fb3660046109e6565b610465565b34801561020c57600080fd5b506101eb6105b5565b34801561022157600080fd5b506002546101b3906001600160a01b031681565b34801561024157600080fd5b5060055460065461025a9167ffffffffffffffff169082565b6040805167ffffffffffffffff909316835260208301919091520161012e565b34801561028657600080fd5b506000546001600160a01b03166101b3565b3480156102a457600080fd5b506101eb6102b336600461096d565b6105c9565b3480156102c457600080fd5b50600154610124565b6101eb6102db36600461096d565b6105e9565b3480156102ec57600080fd5b506101eb6102fb366004610a12565b61065b565b34801561030c57600080fd5b50610124610685565b34801561032157600080fd5b506101eb61033036600461096d565b6106b1565b34801561034157600080fd5b506101eb610350366004610a12565b610706565b6101eb61077f565b60608060005b6004548110156103f257600360006004838154811061038457610384610a34565b6000918252602080832090910154835282019290925260400190205460ff16156103e057600481815481106103bb576103bb610a34565b600091825260209091200154825183906103d3610a34565b6020026020010181815250505b806103ea81610a60565b915050610363565b50919050565b6104006108c3565b80600160008282546104129190610a7b565b9091555050604080518082019091528061042e612a3042610a92565b67ffffffffffffffff908116825260209182019390935281516005805467ffffffffffffffff191691909416179092550151600655565b81600160008282546104779190610a7b565b9091555050604080516000808252602082019092523390849060405161049d9190610aaa565b60006040518083038185875af1925050503d80600081146104da576040519150601f19603f3d011682016040523d82523d6000602084013e6104df565b606091505b50509050806105275760405162461bcd60e51b815260206004820152600f60248201526e14d95b99081155120819985a5b1959608a1b60448201526064015b60405180910390fd5b600260009054906101000a90046001600160a01b03166001600160a01b0316637ee0ef4c6040518163ffffffff1660e01b8152600401602060405180830381600087803b15801561057757600080fd5b505af115801561058b573d6000803e3d6000fd5b505050506040513d601f19601f820116820180604052508101906105af9190610ae5565b50505050565b6105bd6108c3565b6105c7600061091d565b565b6105d16108c3565b6000908152600360205260409020805460ff19169055565b6105f16108c3565b803410156106415760405162461bcd60e51b815260206004820152601860248201527f496e73756666696369656e74204554482062616c616e63650000000000000000604482015260640161051e565b80600160008282546106539190610a92565b909155505050565b6106636108c3565b600280546001600160a01b0319166001600160a01b0392909216919091179055565b60055460009067ffffffffffffffff166106a05750612a3090565b5060055467ffffffffffffffff1690565b6106b96108c3565b6004805460018181019092557f8a35acfbc15ff81a39ae7d344fd709f28e8600b4aa8c65c6b64bfe7fe36bd19b01829055600091825260036020526040909120805460ff19169091179055565b61070e6108c3565b6001600160a01b0381166107735760405162461bcd60e51b815260206004820152602660248201527f4f776e61626c653a206e6577206f776e657220697320746865207a65726f206160448201526564647265737360d01b606482015260840161051e565b61077c8161091d565b50565b60055467ffffffffffffffff90811642909116116107df5760405162461bcd60e51b815260206004820152601560248201527f4f6e676f696e672075706461746520706572696f640000000000000000000000604482015260640161051e565b600654600080546040805183815260208101918290526001600160a01b0390921691849161080d9190610aaa565b60006040518083038185875af1925050503d806000811461084a576040519150601f19603f3d011682016040523d82523d6000602084013e61084f565b606091505b50509050806108945760405162461bcd60e51b815260206004820152601160248201527014d95b99081d1bdad95b8819985a5b1959607a1b604482015260640161051e565b505060408051808201909152600080825260209091018190526005805467ffffffffffffffff19169055600655565b6000546001600160a01b031633146105c75760405162461bcd60e51b815260206004820181905260248201527f4f776e61626c653a2063616c6c6572206973206e6f7420746865206f776e6572604482015260640161051e565b600080546001600160a01b038381166001600160a01b0319831681178455604051919092169283917f8be0079c531659141344cd1fd0a4f28419497f9722a3daafe3b4186f6b6457e09190a35050565b60006020828403121561097f57600080fd5b5035919050565b6020808252825182820181905260009190848201906040850190845b818110156109be578351835292840192918401916001016109a2565b50909695505050505050565b80356001600160a01b03811681146109e157600080fd5b919050565b600080604083850312156109f957600080fd5b82359150610a09602084016109ca565b90509250929050565b600060208284031215610a2457600080fd5b610a2d826109ca565b9392505050565b634e487b7160e01b600052603260045260246000fd5b634e487b7160e01b600052601160045260246000fd5b6000600019821415610a7457610a74610a4a565b5060010190565b600082821015610a8d57610a8d610a4a565b500390565b60008219821115610aa557610aa5610a4a565b500190565b6000825160005b81811015610acb5760208186018101518583015201610ab1565b81811115610ada576000828501525b509190910192915050565b600060208284031215610af757600080fd5b81518015158114610a2d57600080fdfea2646970667358221220f0058e085136556271e50ca56cb303697e07c30d698951aa73f31868ec7796cd64736f6c63430008090033",
  "linkReferences": {},
  "deployedLinkReferences": {}
}