{
  "_format": "hh-sol-artifact-1",
  "contractName": "ChildStatusManager",
  "sourceName": "contracts/StatusManager/ChildStatusManager.sol",
  "abi": [
    {
      "inputs": [
        {
          "internalType": "uint256",
          "name": "_chainId",
          "type": "uint256"
        },
        {
          "internalType": "address",
          "name": "_rootStatusManager",
          "type": "address"
        }
      ],
      "stateMutability": "nonpayable",
      "type": "constructor"
    },
    {
      "anonymous": false,
      "inputs": [
        {
          "indexed": true,
          "internalType": "address",
          "name": "previousOwner",
          "type": "address"
        },
        {
          "indexed": true,
          "internalType": "address",
          "name": "newOwner",
          "type": "address"
        }
      ],
      "name": "OwnershipTransferred",
      "type": "event"
    },
    {
      "inputs": [
        {
          "internalType": "bytes",
          "name": "data",
          "type": "bytes"
        }
      ],
      "name": "_processMessageFromRoot",
      "outputs": [],
      "stateMutability": "nonpayable",
      "type": "function"
    },
    {
      "inputs": [],
      "name": "chainId",
      "outputs": [
        {
          "internalType": "uint256",
          "name": "",
          "type": "uint256"
        }
      ],
      "stateMutability": "view",
      "type": "function"
    },
    {
      "inputs": [],
      "name": "getBridgeAddress",
      "outputs": [
        {
          "internalType": "address",
          "name": "",
          "type": "address"
        }
      ],
      "stateMutability": "view",
      "type": "function"
    },
    {
      "inputs": [],
      "name": "getRootStatusManagers",
      "outputs": [
        {
          "internalType": "address",
          "name": "",
          "type": "address"
        }
      ],
      "stateMutability": "view",
      "type": "function"
    },
    {
      "inputs": [],
      "name": "getSlashStatus",
      "outputs": [
        {
          "internalType": "bool",
          "name": "",
          "type": "bool"
        }
      ],
      "stateMutability": "view",
      "type": "function"
    },
    {
      "inputs": [],
      "name": "isSlashing",
      "outputs": [
        {
          "internalType": "bool",
          "name": "",
          "type": "bool"
        }
      ],
      "stateMutability": "view",
      "type": "function"
    },
    {
      "inputs": [],
      "name": "owner",
      "outputs": [
        {
          "internalType": "address",
          "name": "",
          "type": "address"
        }
      ],
      "stateMutability": "view",
      "type": "function"
    },
    {
      "inputs": [],
      "name": "renounceOwnership",
      "outputs": [],
      "stateMutability": "nonpayable",
      "type": "function"
    },
    {
      "inputs": [
        {
          "internalType": "address",
          "name": "_bridgeAddress",
          "type": "address"
        }
      ],
      "name": "setBridgeAddress",
      "outputs": [
        {
          "internalType": "address",
          "name": "",
          "type": "address"
        }
      ],
      "stateMutability": "nonpayable",
      "type": "function"
    },
    {
      "inputs": [],
      "name": "startSlashing",
      "outputs": [
        {
          "internalType": "bool",
          "name": "",
          "type": "bool"
        }
      ],
      "stateMutability": "nonpayable",
      "type": "function"
    },
    {
      "inputs": [
        {
          "internalType": "address",
          "name": "newOwner",
          "type": "address"
        }
      ],
      "name": "transferOwnership",
      "outputs": [],
      "stateMutability": "nonpayable",
      "type": "function"
    }
  ],
  "bytecode": "0x608060405234801561001057600080fd5b506040516108a03803806108a083398101604081905261002f916100b2565b61003833610062565b600191909155600280546001600160a01b0319166001600160a01b039092169190911790556100ef565b600080546001600160a01b038381166001600160a01b0319831681178455604051919092169283917f8be0079c531659141344cd1fd0a4f28419497f9722a3daafe3b4186f6b6457e09190a35050565b600080604083850312156100c557600080fd5b825160208401519092506001600160a01b03811681146100e457600080fd5b809150509250929050565b6107a2806100fe6000396000f3fe608060405234801561001057600080fd5b50600436106100b95760003560e01c80638da5cb5b11610081578063f2fde38b1161005b578063f2fde38b14610170578063fb32c50814610183578063ff85fda31461019457600080fd5b80638da5cb5b14610137578063963f9885146101485780639a8a05921461015957600080fd5b806348750f6e146100be578063587f8e98146100db57806363a3f847146100ef578063715018a6146101045780637f5a22f91461010c575b600080fd5b6100c66101a6565b60405190151581526020015b60405180910390f35b6000546100c690600160a01b900460ff1681565b6101026100fd366004610587565b610244565b005b610102610313565b61011f61011a366004610607565b610327565b6040516001600160a01b0390911681526020016100d2565b6000546001600160a01b031661011f565b6002546001600160a01b031661011f565b61016260015481565b6040519081526020016100d2565b61010261017e366004610607565b610354565b6003546001600160a01b031661011f565b600054600160a01b900460ff166100c6565b6003546000906001600160a01b031633146102185760405162461bcd60e51b815260206004820152602760248201527f43616c6c6572206973206e6f742074686520626f6e64206d616e6167657220636044820152661bdb9d1c9858dd60ca1b60648201526084015b60405180910390fd5b6000805460ff60a01b1916600160a01b1790556102336103cd565b50600054600160a01b900460ff1690565b6000808280602001905181019061025b9190610667565b915091507fad114c4f11f9fef4ccfd18023f65e7322a4ded3b6e76370e3e7a25dedcf870eb8214156102bf5760008180602001905181019061029d91906106ea565b60008054911515600160a01b0260ff60a01b1990921691909117905550505050565b60405162461bcd60e51b8152602060048201526024808201527f526f6f745374617475734d616e616765723a20494e56414c49445f53594e435f6044820152635459504560e01b606482015260840161020f565b61031b61046e565b61032560006104c8565b565b600061033161046e565b50600380546001600160a01b0319166001600160a01b0392909216918217905590565b61035c61046e565b6001600160a01b0381166103c15760405162461bcd60e51b815260206004820152602660248201527f4f776e61626c653a206e6577206f776e657220697320746865207a65726f206160448201526564647265737360d01b606482015260840161020f565b6103ca816104c8565b50565b600180546040805160208101939093528201526060907fad114c4f11f9fef4ccfd18023f65e7322a4ded3b6e76370e3e7a25dedcf870eb90820160408051601f19818403018152908290526104259291602001610738565b60408051601f198184030181529082905261044291602401610759565b60408051601f1981840301815291905260200180516001600160e01b031663ce125c4760e01b17905250565b6000546001600160a01b031633146103255760405162461bcd60e51b815260206004820181905260248201527f4f776e61626c653a2063616c6c6572206973206e6f7420746865206f776e6572604482015260640161020f565b600080546001600160a01b038381166001600160a01b0319831681178455604051919092169283917f8be0079c531659141344cd1fd0a4f28419497f9722a3daafe3b4186f6b6457e09190a35050565b634e487b7160e01b600052604160045260246000fd5b604051601f8201601f1916810167ffffffffffffffff8111828210171561055757610557610518565b604052919050565b600067ffffffffffffffff82111561057957610579610518565b50601f01601f191660200190565b60006020828403121561059957600080fd5b813567ffffffffffffffff8111156105b057600080fd5b8201601f810184136105c157600080fd5b80356105d46105cf8261055f565b61052e565b8181528560208385010111156105e957600080fd5b81602084016020830137600091810160200191909152949350505050565b60006020828403121561061957600080fd5b81356001600160a01b038116811461063057600080fd5b9392505050565b60005b8381101561065257818101518382015260200161063a565b83811115610661576000848401525b50505050565b6000806040838503121561067a57600080fd5b82519150602083015167ffffffffffffffff81111561069857600080fd5b8301601f810185136106a957600080fd5b80516106b76105cf8261055f565b8181528660208385010111156106cc57600080fd5b6106dd826020830160208601610637565b8093505050509250929050565b6000602082840312156106fc57600080fd5b8151801515811461063057600080fd5b60008151808452610724816020860160208601610637565b601f01601f19169290920160200192915050565b828152604060208201526000610751604083018461070c565b949350505050565b602081526000610630602083018461070c56fea2646970667358221220946b85e2ee085a1d6f82e952fb37a2b858f579099b51708d2821ef479948a04d64736f6c63430008090033",
  "linkReferences": {},
  "deployedLinkReferences": {}
}