{
  "_format": "hh-sol-artifact-1",
  "contractName": "MessageManager",
  "sourceName": "contracts/MessageManager.sol",
  "abi": [
    {
      "anonymous": false,
      "inputs": [
        {
          "indexed": true,
          "internalType": "address",
          "name": "previousOwner",
          "type": "address"
        },
        {
          "indexed": true,
          "internalType": "address",
          "name": "newOwner",
          "type": "address"
        }
      ],
      "name": "OwnershipTransferred",
      "type": "event"
    },
    {
      "inputs": [
        {
          "internalType": "uint256",
          "name": "_messageId",
          "type": "uint256"
        }
      ],
      "name": "cancelRelayMessage",
      "outputs": [
        {
          "components": [
            {
              "internalType": "address",
              "name": "user",
              "type": "address"
            },
            {
              "internalType": "uint256",
              "name": "index",
              "type": "uint256"
            },
            {
              "internalType": "uint256",
              "name": "destChainId",
              "type": "uint256"
            },
            {
              "internalType": "address",
              "name": "to",
              "type": "address"
            },
            {
              "internalType": "uint256",
              "name": "fee",
              "type": "uint256"
            },
            {
              "internalType": "bytes",
              "name": "message",
              "type": "bytes"
            },
            {
              "internalType": "uint8",
              "name": "status",
              "type": "uint8"
            }
          ],
          "internalType": "struct MessageManager.RelayMessage",
          "name": "",
          "type": "tuple"
        }
      ],
      "stateMutability": "nonpayable",
      "type": "function"
    },
    {
      "inputs": [
        {
          "internalType": "uint256",
          "name": "_messageId",
          "type": "uint256"
        }
      ],
      "name": "finishExecMessage",
      "outputs": [
        {
          "components": [
            {
              "internalType": "address",
              "name": "user",
              "type": "address"
            },
            {
              "internalType": "uint256",
              "name": "index",
              "type": "uint256"
            },
            {
              "internalType": "uint256",
              "name": "destChainId",
              "type": "uint256"
            },
            {
              "internalType": "address",
              "name": "to",
              "type": "address"
            },
            {
              "internalType": "uint256",
              "name": "fee",
              "type": "uint256"
            },
            {
              "internalType": "bytes",
              "name": "message",
              "type": "bytes"
            },
            {
              "internalType": "uint8",
              "name": "status",
              "type": "uint8"
            }
          ],
          "internalType": "struct MessageManager.RelayMessage",
          "name": "",
          "type": "tuple"
        }
      ],
      "stateMutability": "nonpayable",
      "type": "function"
    },
    {
      "inputs": [],
      "name": "getMessageCount",
      "outputs": [
        {
          "internalType": "uint256",
          "name": "",
          "type": "uint256"
        }
      ],
      "stateMutability": "view",
      "type": "function"
    },
    {
      "inputs": [
        {
          "internalType": "uint256",
          "name": "_startMessageId",
          "type": "uint256"
        },
        {
          "internalType": "uint256",
          "name": "_endMessageId",
          "type": "uint256"
        }
      ],
      "name": "getRelayMessage",
      "outputs": [
        {
          "components": [
            {
              "internalType": "address",
              "name": "user",
              "type": "address"
            },
            {
              "internalType": "uint256",
              "name": "index",
              "type": "uint256"
            },
            {
              "internalType": "uint256",
              "name": "destChainId",
              "type": "uint256"
            },
            {
              "internalType": "address",
              "name": "to",
              "type": "address"
            },
            {
              "internalType": "uint256",
              "name": "fee",
              "type": "uint256"
            },
            {
              "internalType": "bytes",
              "name": "message",
              "type": "bytes"
            },
            {
              "internalType": "uint8",
              "name": "status",
              "type": "uint8"
            }
          ],
          "internalType": "struct MessageManager.RelayMessage[]",
          "name": "",
          "type": "tuple[]"
        }
      ],
      "stateMutability": "nonpayable",
      "type": "function"
    },
    {
      "inputs": [],
      "name": "owner",
      "outputs": [
        {
          "internalType": "address",
          "name": "",
          "type": "address"
        }
      ],
      "stateMutability": "view",
      "type": "function"
    },
    {
      "inputs": [
        {
          "internalType": "uint256",
          "name": "",
          "type": "uint256"
        }
      ],
      "name": "relayMessages",
      "outputs": [
        {
          "internalType": "address",
          "name": "user",
          "type": "address"
        },
        {
          "internalType": "uint256",
          "name": "index",
          "type": "uint256"
        },
        {
          "internalType": "uint256",
          "name": "destChainId",
          "type": "uint256"
        },
        {
          "internalType": "address",
          "name": "to",
          "type": "address"
        },
        {
          "internalType": "uint256",
          "name": "fee",
          "type": "uint256"
        },
        {
          "internalType": "bytes",
          "name": "message",
          "type": "bytes"
        },
        {
          "internalType": "uint8",
          "name": "status",
          "type": "uint8"
        }
      ],
      "stateMutability": "view",
      "type": "function"
    },
    {
      "inputs": [],
      "name": "renounceOwnership",
      "outputs": [],
      "stateMutability": "nonpayable",
      "type": "function"
    },
    {
      "inputs": [
        {
          "internalType": "uint256",
          "name": "_destChainId",
          "type": "uint256"
        },
        {
          "internalType": "address",
          "name": "_to",
          "type": "address"
        },
        {
          "internalType": "bytes",
          "name": "_message",
          "type": "bytes"
        }
      ],
      "name": "setRelayMessage",
      "outputs": [
        {
          "components": [
            {
              "internalType": "address",
              "name": "user",
              "type": "address"
            },
            {
              "internalType": "uint256",
              "name": "index",
              "type": "uint256"
            },
            {
              "internalType": "uint256",
              "name": "destChainId",
              "type": "uint256"
            },
            {
              "internalType": "address",
              "name": "to",
              "type": "address"
            },
            {
              "internalType": "uint256",
              "name": "fee",
              "type": "uint256"
            },
            {
              "internalType": "bytes",
              "name": "message",
              "type": "bytes"
            },
            {
              "internalType": "uint8",
              "name": "status",
              "type": "uint8"
            }
          ],
          "internalType": "struct MessageManager.RelayMessage",
          "name": "",
          "type": "tuple"
        }
      ],
      "stateMutability": "payable",
      "type": "function"
    },
    {
      "inputs": [
        {
          "internalType": "uint256",
          "name": "_messageId",
          "type": "uint256"
        }
      ],
      "name": "startExecMessage",
      "outputs": [
        {
          "components": [
            {
              "internalType": "address",
              "name": "user",
              "type": "address"
            },
            {
              "internalType": "uint256",
              "name": "index",
              "type": "uint256"
            },
            {
              "internalType": "uint256",
              "name": "destChainId",
              "type": "uint256"
            },
            {
              "internalType": "address",
              "name": "to",
              "type": "address"
            },
            {
              "internalType": "uint256",
              "name": "fee",
              "type": "uint256"
            },
            {
              "internalType": "bytes",
              "name": "message",
              "type": "bytes"
            },
            {
              "internalType": "uint8",
              "name": "status",
              "type": "uint8"
            }
          ],
          "internalType": "struct MessageManager.RelayMessage",
          "name": "",
          "type": "tuple"
        }
      ],
      "stateMutability": "nonpayable",
      "type": "function"
    },
    {
      "inputs": [
        {
          "internalType": "address",
          "name": "newOwner",
          "type": "address"
        }
      ],
      "name": "transferOwnership",
      "outputs": [],
      "stateMutability": "nonpayable",
      "type": "function"
    }
  ],
  "bytecode": "0x608060405234801561001057600080fd5b5061001a3361001f565b61006f565b600080546001600160a01b038381166001600160a01b0319831681178455604051919092169283917f8be0079c531659141344cd1fd0a4f28419497f9722a3daafe3b4186f6b6457e09190a35050565b610f858061007e6000396000f3fe6080604052600436106100915760003560e01c80637a648cab116100595780637a648cab146101545780638da5cb5b14610174578063bca917c71461019c578063f2fde38b146101bc578063fe1e2f41146101dc57600080fd5b806310513b921461009657806322e40796146100bf57806331933916146100f25780634d7d124714610110578063715018a61461013d575b600080fd5b6100a96100a4366004610c38565b6101fc565b6040516100b69190610d77565b60405180910390f35b3480156100cb57600080fd5b506100df6100da366004610d91565b610457565b6040516100b69796959493929190610daa565b3480156100fe57600080fd5b506001546040519081526020016100b6565b34801561011c57600080fd5b5061013061012b366004610dff565b61052d565b6040516100b69190610e21565b34801561014957600080fd5b50610152610692565b005b34801561016057600080fd5b506100a961016f366004610d91565b6106a6565b34801561018057600080fd5b506000546040516001600160a01b0390911681526020016100b6565b3480156101a857600080fd5b506100a96101b7366004610d91565b610842565b3480156101c857600080fd5b506101526101d7366004610e83565b61092c565b3480156101e857600080fd5b506100a96101f7366004610d91565b6109a5565b610204610b36565b6040518060e00160405280336001600160a01b031681526020016001548152602001868152602001856001600160a01b0316815260200134815260200184848080601f016020809104026020016040519081016040528093929190818152602001838380828437600092018290525093855250505060209182018190526001805482526002808452604092839020855181546001600160a01b03199081166001600160a01b0392831617835587870151948301949094559386015191810191909155606085015160038201805490931693169290921790556080830151600482015560a08301518051919261030192600585019290910190610b88565b5060c091909101516006909101805460ff191660ff909216919091179055600180548190600090610333908390610eb4565b92505081905550600260006001805461034c9190610ecc565b81526020808201929092526040908101600020815160e08101835281546001600160a01b039081168252600183015494820194909452600282015492810192909252600381015490921660608201526004820154608082015260058201805491929160a0840191906103bd90610ee3565b80601f01602080910402602001604051908101604052809291908181526020018280546103e990610ee3565b80156104365780601f1061040b57610100808354040283529160200191610436565b820191906000526020600020905b81548152906001019060200180831161041957829003601f168201915b50505091835250506006919091015460ff1660209091015295945050505050565b60026020819052600091825260409091208054600182015492820154600383015460048401546005850180546001600160a01b03958616979694959093169391926104a190610ee3565b80601f01602080910402602001604051908101604052809291908181526020018280546104cd90610ee3565b801561051a5780601f106104ef5761010080835404028352916020019161051a565b820191906000526020600020905b8154815290600101906020018083116104fd57829003601f168201915b5050506006909301549192505060ff1687565b606080835b8381101561068a5760008181526002602052604090206006015460ff1661067857600081815260026020818152604092839020835160e08101855281546001600160a01b039081168252600183015493820193909352928101549383019390935260038301541660608201526004820154608082015260058201805491929160a0840191906105c090610ee3565b80601f01602080910402602001604051908101604052809291908181526020018280546105ec90610ee3565b80156106395780601f1061060e57610100808354040283529160200191610639565b820191906000526020600020905b81548152906001019060200180831161061c57829003601f168201915b50505091835250506006919091015460ff166020909101528261065c8784610ecc565b8151811061066c5761066c610f1e565b60200260200101819052505b8061068281610f34565b915050610532565b509392505050565b61069a610a8c565b6106a46000610ae6565b565b6106ae610b36565b6106b6610a8c565b60008281526002602052604090206006015460ff16156107295760405162461bcd60e51b815260206004820152602360248201527f4d657373616765207374617475732073686f756c64206265207375626d69747460448201526265642160e81b60648201526084015b60405180910390fd5b60008281526002602081815260409283902060068101805460ff19166001908117909155845160e08101865282546001600160a01b03908116825291830154938101939093529281015493820193909352600383015490911660608201526004820154608082015260058201805491929160a0840191906107a990610ee3565b80601f01602080910402602001604051908101604052809291908181526020018280546107d590610ee3565b80156108225780601f106107f757610100808354040283529160200191610822565b820191906000526020600020905b81548152906001019060200180831161080557829003601f168201915b50505091835250506006919091015460ff1660209091015290505b919050565b61084a610b36565b60008281526002602052604090206006015460ff166001146108ae5760405162461bcd60e51b815260206004820181905260248201527f4d657373616765207374617475732073686f756c6420626520737461727465646044820152606401610720565b60008281526002602081815260409283902060068101805460ff19166003908117909155845160e08101865282546001600160a01b0390811682526001840154948201949094529382015494840194909452928301541660608201526004820154608082015260058201805491929160a0840191906107a990610ee3565b610934610a8c565b6001600160a01b0381166109995760405162461bcd60e51b815260206004820152602660248201527f4f776e61626c653a206e6577206f776e657220697320746865207a65726f206160448201526564647265737360d01b6064820152608401610720565b6109a281610ae6565b50565b6109ad610b36565b60008281526002602052604090206006015460ff16600114610a115760405162461bcd60e51b815260206004820181905260248201527f4d657373616765207374617475732073686f756c6420626520737461727465646044820152606401610720565b60008281526002602081815260409283902060068101805460ff191684179055835160e08101855281546001600160a01b039081168252600183015493820193909352928101549383019390935260038301541660608201526004820154608082015260058201805491929160a0840191906107a990610ee3565b6000546001600160a01b031633146106a45760405162461bcd60e51b815260206004820181905260248201527f4f776e61626c653a2063616c6c6572206973206e6f7420746865206f776e65726044820152606401610720565b600080546001600160a01b038381166001600160a01b0319831681178455604051919092169283917f8be0079c531659141344cd1fd0a4f28419497f9722a3daafe3b4186f6b6457e09190a35050565b6040518060e0016040528060006001600160a01b03168152602001600081526020016000815260200160006001600160a01b031681526020016000815260200160608152602001600060ff1681525090565b828054610b9490610ee3565b90600052602060002090601f016020900481019282610bb65760008555610bfc565b82601f10610bcf57805160ff1916838001178555610bfc565b82800160010185558215610bfc579182015b82811115610bfc578251825591602001919060010190610be1565b50610c08929150610c0c565b5090565b5b80821115610c085760008155600101610c0d565b80356001600160a01b038116811461083d57600080fd5b60008060008060608587031215610c4e57600080fd5b84359350610c5e60208601610c21565b9250604085013567ffffffffffffffff80821115610c7b57600080fd5b818701915087601f830112610c8f57600080fd5b813581811115610c9e57600080fd5b886020828501011115610cb057600080fd5b95989497505060200194505050565b6000815180845260005b81811015610ce557602081850181015186830182015201610cc9565b81811115610cf7576000602083870101525b50601f01601f19169290920160200192915050565b60006001600160a01b038083511684526020830151602085015260408301516040850152806060840151166060850152506080820151608084015260a082015160e060a0850152610d6060e0850182610cbf565b60c09384015160ff16949093019390935250919050565b602081526000610d8a6020830184610d0c565b9392505050565b600060208284031215610da357600080fd5b5035919050565b60006001600160a01b03808a16835288602084015287604084015280871660608401525084608083015260e060a0830152610de860e0830185610cbf565b905060ff831660c083015298975050505050505050565b60008060408385031215610e1257600080fd5b50508035926020909101359150565b6000602080830181845280855180835260408601915060408160051b870101925083870160005b82811015610e7657603f19888603018452610e64858351610d0c565b94509285019290850190600101610e48565b5092979650505050505050565b600060208284031215610e9557600080fd5b610d8a82610c21565b634e487b7160e01b600052601160045260246000fd5b60008219821115610ec757610ec7610e9e565b500190565b600082821015610ede57610ede610e9e565b500390565b600181811c90821680610ef757607f821691505b60208210811415610f1857634e487b7160e01b600052602260045260246000fd5b50919050565b634e487b7160e01b600052603260045260246000fd5b6000600019821415610f4857610f48610e9e565b506001019056fea2646970667358221220de892a2d0415e54117acf7eccc68c54b1aea255cb77237291ea0102ee773193b64736f6c63430008090033",
  "linkReferences": {},
  "deployedLinkReferences": {}
}