{
  "_format": "hh-sol-artifact-1",
  "contractName": "RootStatusManager",
  "sourceName": "contracts/StatusManager/RootStatusManager.sol",
  "abi": [
    {
      "inputs": [
        {
          "internalType": "address",
          "name": "_universalBridgeAddress",
          "type": "address"
        }
      ],
      "stateMutability": "nonpayable",
      "type": "constructor"
    },
    {
      "anonymous": false,
      "inputs": [
        {
          "indexed": true,
          "internalType": "address",
          "name": "previousOwner",
          "type": "address"
        },
        {
          "indexed": true,
          "internalType": "address",
          "name": "newOwner",
          "type": "address"
        }
      ],
      "name": "OwnershipTransferred",
      "type": "event"
    },
    {
      "inputs": [
        {
          "internalType": "bytes",
          "name": "data",
          "type": "bytes"
        }
      ],
      "name": "_processMessageFromChild",
      "outputs": [],
      "stateMutability": "nonpayable",
      "type": "function"
    },
    {
      "inputs": [],
      "name": "bondManagerAddress",
      "outputs": [
        {
          "internalType": "address",
          "name": "",
          "type": "address"
        }
      ],
      "stateMutability": "view",
      "type": "function"
    },
    {
      "inputs": [],
      "name": "finishSlashing",
      "outputs": [
        {
          "internalType": "bool",
          "name": "",
          "type": "bool"
        }
      ],
      "stateMutability": "nonpayable",
      "type": "function"
    },
    {
      "inputs": [],
      "name": "getBondManagerAddress",
      "outputs": [
        {
          "internalType": "address",
          "name": "",
          "type": "address"
        }
      ],
      "stateMutability": "view",
      "type": "function"
    },
    {
      "inputs": [
        {
          "internalType": "uint256",
          "name": "_chainId",
          "type": "uint256"
        }
      ],
      "name": "getChildStatusManagers",
      "outputs": [
        {
          "internalType": "address",
          "name": "",
          "type": "address"
        }
      ],
      "stateMutability": "view",
      "type": "function"
    },
    {
      "inputs": [],
      "name": "getSlashStatus",
      "outputs": [
        {
          "internalType": "bool",
          "name": "",
          "type": "bool"
        }
      ],
      "stateMutability": "view",
      "type": "function"
    },
    {
      "inputs": [],
      "name": "isSlashing",
      "outputs": [
        {
          "internalType": "bool",
          "name": "",
          "type": "bool"
        }
      ],
      "stateMutability": "view",
      "type": "function"
    },
    {
      "inputs": [],
      "name": "owner",
      "outputs": [
        {
          "internalType": "address",
          "name": "",
          "type": "address"
        }
      ],
      "stateMutability": "view",
      "type": "function"
    },
    {
      "inputs": [],
      "name": "renounceOwnership",
      "outputs": [],
      "stateMutability": "nonpayable",
      "type": "function"
    },
    {
      "inputs": [
        {
          "internalType": "address",
          "name": "_bondManagerAddress",
          "type": "address"
        }
      ],
      "name": "setBondManagerAddress",
      "outputs": [
        {
          "internalType": "address",
          "name": "",
          "type": "address"
        }
      ],
      "stateMutability": "nonpayable",
      "type": "function"
    },
    {
      "inputs": [
        {
          "internalType": "uint256",
          "name": "_chainId",
          "type": "uint256"
        },
        {
          "internalType": "address",
          "name": "_childStatusManager",
          "type": "address"
        }
      ],
      "name": "setChildStatusManagers",
      "outputs": [
        {
          "internalType": "address",
          "name": "",
          "type": "address"
        }
      ],
      "stateMutability": "nonpayable",
      "type": "function"
    },
    {
      "inputs": [],
      "name": "slashedChainId",
      "outputs": [
        {
          "internalType": "uint256",
          "name": "",
          "type": "uint256"
        }
      ],
      "stateMutability": "view",
      "type": "function"
    },
    {
      "inputs": [
        {
          "internalType": "address",
          "name": "newOwner",
          "type": "address"
        }
      ],
      "name": "transferOwnership",
      "outputs": [],
      "stateMutability": "nonpayable",
      "type": "function"
    }
  ],
  "bytecode": "0x608060405234801561001057600080fd5b50604051610a49380380610a4983398101604081905261002f916100ad565b6100383361005d565b600480546001600160a01b0319166001600160a01b03929092169190911790556100dd565b600080546001600160a01b038381166001600160a01b0319831681178455604051919092169283917f8be0079c531659141344cd1fd0a4f28419497f9722a3daafe3b4186f6b6457e09190a35050565b6000602082840312156100bf57600080fd5b81516001600160a01b03811681146100d657600080fd5b9392505050565b61095d806100ec6000396000f3fe608060405234801561001057600080fd5b50600436106100df5760003560e01c8063715018a61161008c578063ba23a8ee11610066578063ba23a8ee146101bf578063ce125c47146101d2578063f2fde38b146101e5578063ff85fda3146101f857600080fd5b8063715018a61461019c5780637ee0ef4c146101a65780638da5cb5b146101ae57600080fd5b80633f0343a7116100bd5780633f0343a71461014e5780635157ec3314610165578063587f8e981461017857600080fd5b80630377b879146100e4578063248f32471461012a5780632a708c9f1461013d575b600080fd5b61010d6100f2366004610638565b6000908152600360205260409020546001600160a01b031690565b6040516001600160a01b0390911681526020015b60405180910390f35b60025461010d906001600160a01b031681565b6002546001600160a01b031661010d565b61015760015481565b604051908152602001610121565b61010d610173366004610668565b61020a565b60005461018c90600160a01b900460ff1681565b6040519015158152602001610121565b6101a4610244565b005b61018c610258565b6000546001600160a01b031661010d565b61010d6101cd366004610694565b6102f4565b6101a46101e0366004610725565b610323565b6101a46101f3366004610694565b6103fe565b600054600160a01b900460ff1661018c565b6000610214610477565b5060009182526003602052604090912080546001600160a01b0319166001600160a01b0392909216918217905590565b61024c610477565b61025660006104d1565b565b6002546000906001600160a01b031633146102ca5760405162461bcd60e51b815260206004820152602760248201527f43616c6c6572206973206e6f742074686520626f6e64206d616e6167657220636044820152661bdb9d1c9858dd60ca1b60648201526084015b60405180910390fd5b6000805460ff60a01b191690556001546102e390610521565b50600054600160a01b900460ff1690565b60006102fe610477565b50600280546001600160a01b0319166001600160a01b0383169081179091555b919050565b6000808280602001905181019061033a91906107d5565b915091507fad114c4f11f9fef4ccfd18023f65e7322a4ded3b6e76370e3e7a25dedcf870eb8214156103a5576000808280602001905181019061037d9190610858565b60008054921515600160a01b0260ff60a01b1990931692909217909155600155506103f99050565b60405162461bcd60e51b8152602060048201526024808201527f526f6f745374617475734d616e616765723a20494e56414c49445f53594e435f6044820152635459504560e01b60648201526084016102c1565b505050565b610406610477565b6001600160a01b03811661046b5760405162461bcd60e51b815260206004820152602660248201527f4f776e61626c653a206e6577206f776e657220697320746865207a65726f206160448201526564647265737360d01b60648201526084016102c1565b610474816104d1565b50565b6000546001600160a01b031633146102565760405162461bcd60e51b815260206004820181905260248201527f4f776e61626c653a2063616c6c6572206973206e6f7420746865206f776e657260448201526064016102c1565b600080546001600160a01b038381166001600160a01b0319831681178455604051919092169283917f8be0079c531659141344cd1fd0a4f28419497f9722a3daafe3b4186f6b6457e09190a35050565b60408051600060208201526060917fad114c4f11f9fef4ccfd18023f65e7322a4ded3b6e76370e3e7a25dedcf870eb910160408051601f198184030181529082905261057092916020016108b7565b60408051601f198184030181529082905261058d916024016108d8565b60408051601f19818403018152918152602080830180516001600160e01b03166363a3f84760e01b1790526004805460008781526003909352838320549351631c779dc160e21b81529495506001600160a01b03908116946371de7704946106029489949190931692889290918291016108eb565b600060405180830381600087803b15801561061c57600080fd5b505af1158015610630573d6000803e3d6000fd5b505050505050565b60006020828403121561064a57600080fd5b5035919050565b80356001600160a01b038116811461031e57600080fd5b6000806040838503121561067b57600080fd5b8235915061068b60208401610651565b90509250929050565b6000602082840312156106a657600080fd5b6106af82610651565b9392505050565b634e487b7160e01b600052604160045260246000fd5b604051601f8201601f1916810167ffffffffffffffff811182821017156106f5576106f56106b6565b604052919050565b600067ffffffffffffffff821115610717576107176106b6565b50601f01601f191660200190565b60006020828403121561073757600080fd5b813567ffffffffffffffff81111561074e57600080fd5b8201601f8101841361075f57600080fd5b803561077261076d826106fd565b6106cc565b81815285602083850101111561078757600080fd5b81602084016020830137600091810160200191909152949350505050565b60005b838110156107c05781810151838201526020016107a8565b838111156107cf576000848401525b50505050565b600080604083850312156107e857600080fd5b82519150602083015167ffffffffffffffff81111561080657600080fd5b8301601f8101851361081757600080fd5b805161082561076d826106fd565b81815286602083850101111561083a57600080fd5b61084b8260208301602086016107a5565b8093505050509250929050565b6000806040838503121561086b57600080fd5b8251801515811461087b57600080fd5b6020939093015192949293505050565b600081518084526108a38160208601602086016107a5565b601f01601f19169290920160200192915050565b8281526040602082015260006108d0604083018461088b565b949350505050565b6020815260006106af602083018461088b565b8581526001600160a01b038516602082015260a06040820152600061091360a083018661088b565b60608301949094525060800152939250505056fea2646970667358221220429e87d70c5b4ab5cd3a4f6fe2f9a6d455be4501a5fe9adc224453575b38f60864736f6c63430008090033",
  "linkReferences": {},
  "deployedLinkReferences": {}
}